{
  "contractName": "FightingAnimals",
  "abi": [
    {
      "inputs": [],
      "stateMutability": "nonpayable",
      "type": "constructor"
    },
    {
      "anonymous": false,
      "inputs": [
        {
          "indexed": true,
          "internalType": "address",
          "name": "owner",
          "type": "address"
        },
        {
          "indexed": true,
          "internalType": "address",
          "name": "approved",
          "type": "address"
        },
        {
          "indexed": true,
          "internalType": "uint256",
          "name": "tokenId",
          "type": "uint256"
        }
      ],
      "name": "Approval",
      "type": "event"
    },
    {
      "anonymous": false,
      "inputs": [
        {
          "indexed": true,
          "internalType": "address",
          "name": "owner",
          "type": "address"
        },
        {
          "indexed": true,
          "internalType": "address",
          "name": "operator",
          "type": "address"
        },
        {
          "indexed": false,
          "internalType": "bool",
          "name": "approved",
          "type": "bool"
        }
      ],
      "name": "ApprovalForAll",
      "type": "event"
    },
    {
      "anonymous": false,
      "inputs": [
        {
          "indexed": true,
          "internalType": "address",
          "name": "previousOwner",
          "type": "address"
        },
        {
          "indexed": true,
          "internalType": "address",
          "name": "newOwner",
          "type": "address"
        }
      ],
      "name": "OwnershipTransferred",
      "type": "event"
    },
    {
      "anonymous": false,
      "inputs": [
        {
          "indexed": true,
          "internalType": "address",
          "name": "from",
          "type": "address"
        },
        {
          "indexed": true,
          "internalType": "address",
          "name": "to",
          "type": "address"
        },
        {
          "indexed": true,
          "internalType": "uint256",
          "name": "tokenId",
          "type": "uint256"
        }
      ],
      "name": "Transfer",
      "type": "event"
    },
    {
      "anonymous": false,
      "inputs": [
        {
          "indexed": true,
          "internalType": "address",
          "name": "account",
          "type": "address"
        }
      ],
      "name": "registerNewBreeder",
      "type": "event"
    },
    {
      "anonymous": false,
      "inputs": [
        {
          "indexed": true,
          "internalType": "address",
          "name": "account",
          "type": "address"
        }
      ],
      "name": "unregisterOldBreeder",
      "type": "event"
    },
    {
      "inputs": [
        {
          "internalType": "address",
          "name": "to",
          "type": "address"
        },
        {
          "internalType": "uint256",
          "name": "tokenId",
          "type": "uint256"
        }
      ],
      "name": "approve",
      "outputs": [],
      "stateMutability": "nonpayable",
      "type": "function"
    },
    {
      "inputs": [
        {
          "internalType": "address",
          "name": "owner",
          "type": "address"
        }
      ],
      "name": "balanceOf",
      "outputs": [
        {
          "internalType": "uint256",
          "name": "",
          "type": "uint256"
        }
      ],
      "stateMutability": "view",
      "type": "function"
    },
    {
      "inputs": [],
      "name": "baseURI",
      "outputs": [
        {
          "internalType": "string",
          "name": "",
          "type": "string"
        }
      ],
      "stateMutability": "view",
      "type": "function"
    },
    {
      "inputs": [
        {
          "internalType": "uint256",
          "name": "tokenId",
          "type": "uint256"
        }
      ],
      "name": "getApproved",
      "outputs": [
        {
          "internalType": "address",
          "name": "",
          "type": "address"
        }
      ],
      "stateMutability": "view",
      "type": "function"
    },
    {
      "inputs": [
        {
          "internalType": "address",
          "name": "owner",
          "type": "address"
        },
        {
          "internalType": "address",
          "name": "operator",
          "type": "address"
        }
      ],
      "name": "isApprovedForAll",
      "outputs": [
        {
          "internalType": "bool",
          "name": "",
          "type": "bool"
        }
      ],
      "stateMutability": "view",
      "type": "function"
    },
    {
      "inputs": [],
      "name": "name",
      "outputs": [
        {
          "internalType": "string",
          "name": "",
          "type": "string"
        }
      ],
      "stateMutability": "view",
      "type": "function"
    },
    {
      "inputs": [],
      "name": "owner",
      "outputs": [
        {
          "internalType": "address",
          "name": "",
          "type": "address"
        }
      ],
      "stateMutability": "view",
      "type": "function"
    },
    {
      "inputs": [
        {
          "internalType": "uint256",
          "name": "tokenId",
          "type": "uint256"
        }
      ],
      "name": "ownerOf",
      "outputs": [
        {
          "internalType": "address",
          "name": "",
          "type": "address"
        }
      ],
      "stateMutability": "view",
      "type": "function"
    },
    {
      "inputs": [],
      "name": "renounceOwnership",
      "outputs": [],
      "stateMutability": "nonpayable",
      "type": "function"
    },
    {
      "inputs": [
        {
          "internalType": "address",
          "name": "from",
          "type": "address"
        },
        {
          "internalType": "address",
          "name": "to",
          "type": "address"
        },
        {
          "internalType": "uint256",
          "name": "tokenId",
          "type": "uint256"
        }
      ],
      "name": "safeTransferFrom",
      "outputs": [],
      "stateMutability": "nonpayable",
      "type": "function"
    },
    {
      "inputs": [
        {
          "internalType": "address",
          "name": "from",
          "type": "address"
        },
        {
          "internalType": "address",
          "name": "to",
          "type": "address"
        },
        {
          "internalType": "uint256",
          "name": "tokenId",
          "type": "uint256"
        },
        {
          "internalType": "bytes",
          "name": "_data",
          "type": "bytes"
        }
      ],
      "name": "safeTransferFrom",
      "outputs": [],
      "stateMutability": "nonpayable",
      "type": "function"
    },
    {
      "inputs": [
        {
          "internalType": "address",
          "name": "operator",
          "type": "address"
        },
        {
          "internalType": "bool",
          "name": "approved",
          "type": "bool"
        }
      ],
      "name": "setApprovalForAll",
      "outputs": [],
      "stateMutability": "nonpayable",
      "type": "function"
    },
    {
      "inputs": [
        {
          "internalType": "bytes4",
          "name": "interfaceId",
          "type": "bytes4"
        }
      ],
      "name": "supportsInterface",
      "outputs": [
        {
          "internalType": "bool",
          "name": "",
          "type": "bool"
        }
      ],
      "stateMutability": "view",
      "type": "function"
    },
    {
      "inputs": [],
      "name": "symbol",
      "outputs": [
        {
          "internalType": "string",
          "name": "",
          "type": "string"
        }
      ],
      "stateMutability": "view",
      "type": "function"
    },
    {
      "inputs": [
        {
          "internalType": "uint256",
          "name": "index",
          "type": "uint256"
        }
      ],
      "name": "tokenByIndex",
      "outputs": [
        {
          "internalType": "uint256",
          "name": "",
          "type": "uint256"
        }
      ],
      "stateMutability": "view",
      "type": "function"
    },
    {
      "inputs": [
        {
          "internalType": "address",
          "name": "owner",
          "type": "address"
        },
        {
          "internalType": "uint256",
          "name": "index",
          "type": "uint256"
        }
      ],
      "name": "tokenOfOwnerByIndex",
      "outputs": [
        {
          "internalType": "uint256",
          "name": "",
          "type": "uint256"
        }
      ],
      "stateMutability": "view",
      "type": "function"
    },
    {
      "inputs": [
        {
          "internalType": "uint256",
          "name": "tokenId",
          "type": "uint256"
        }
      ],
      "name": "tokenURI",
      "outputs": [
        {
          "internalType": "string",
          "name": "",
          "type": "string"
        }
      ],
      "stateMutability": "view",
      "type": "function"
    },
    {
      "inputs": [],
      "name": "totalSupply",
      "outputs": [
        {
          "internalType": "uint256",
          "name": "",
          "type": "uint256"
        }
      ],
      "stateMutability": "view",
      "type": "function"
    },
    {
      "inputs": [
        {
          "internalType": "address",
          "name": "from",
          "type": "address"
        },
        {
          "internalType": "address",
          "name": "to",
          "type": "address"
        },
        {
          "internalType": "uint256",
          "name": "tokenId",
          "type": "uint256"
        }
      ],
      "name": "transferFrom",
      "outputs": [],
      "stateMutability": "nonpayable",
      "type": "function"
    },
    {
      "inputs": [
        {
          "internalType": "address",
          "name": "newOwner",
          "type": "address"
        }
      ],
      "name": "transferOwnership",
      "outputs": [],
      "stateMutability": "nonpayable",
      "type": "function"
    },
    {
      "inputs": [
        {
          "internalType": "address",
          "name": "_address",
          "type": "address"
        }
      ],
      "name": "registerBreeder",
      "outputs": [],
      "stateMutability": "nonpayable",
      "type": "function"
    },
    {
      "inputs": [
        {
          "internalType": "address",
          "name": "_address",
          "type": "address"
        }
      ],
      "name": "unregisterBreeder",
      "outputs": [],
      "stateMutability": "nonpayable",
      "type": "function"
    },
    {
      "inputs": [
        {
          "internalType": "address",
          "name": "_address",
          "type": "address"
        }
      ],
      "name": "isRegistered",
      "outputs": [
        {
          "internalType": "bool",
          "name": "",
          "type": "bool"
        }
      ],
      "stateMutability": "view",
      "type": "function"
    },
    {
      "inputs": [
        {
          "internalType": "address",
          "name": "player",
          "type": "address"
        },
        {
          "internalType": "string",
          "name": "tokenURI",
          "type": "string"
        }
      ],
      "name": "awardItem",
      "outputs": [
        {
          "internalType": "uint256",
          "name": "",
          "type": "uint256"
        }
      ],
      "stateMutability": "nonpayable",
      "type": "function"
    },
    {
      "inputs": [],
      "name": "declareAnimal",
      "outputs": [],
      "stateMutability": "nonpayable",
      "type": "function"
    }
  ],
  "bytecode": "0x60806040523480156200001157600080fd5b506040518060400160405280600c81526020017f43727970746f506f756c706500000000000000000000000000000000000000008152506040518060400160405280600381526020017f504c500000000000000000000000000000000000000000000000000000000000815250620000966301ffc9a760e01b620001c960201b60201c565b8160069080519060200190620000ae929190620002da565b508060079080519060200190620000c7929190620002da565b50620000e06380ac58cd60e01b620001c960201b60201c565b620000f8635b5e139f60e01b620001c960201b60201c565b6200011063780e9d6360e01b620001c960201b60201c565b5050600062000124620002d260201b60201c565b905080600a60006101000a81548173ffffffffffffffffffffffffffffffffffffffff021916908373ffffffffffffffffffffffffffffffffffffffff1602179055508073ffffffffffffffffffffffffffffffffffffffff16600073ffffffffffffffffffffffffffffffffffffffff167f8be0079c531659141344cd1fd0a4f28419497f9722a3daafe3b4186f6b6457e060405160405180910390a35062000389565b63ffffffff60e01b817bffffffffffffffffffffffffffffffffffffffffffffffffffffffff1916141562000266576040517f08c379a000000000000000000000000000000000000000000000000000000000815260040180806020018281038252601c8152602001807f4552433136353a20696e76616c696420696e746572666163652069640000000081525060200191505060405180910390fd5b6001600080837bffffffffffffffffffffffffffffffffffffffffffffffffffffffff19167bffffffffffffffffffffffffffffffffffffffffffffffffffffffff1916815260200190815260200160002060006101000a81548160ff02191690831515021790555050565b600033905090565b828054600181600116156101000203166002900490600052602060002090601f016020900481019282601f106200031d57805160ff19168380011785556200034e565b828001600101855582156200034e579182015b828111156200034d57825182559160200191906001019062000330565b5b5090506200035d919062000361565b5090565b6200038691905b808211156200038257600081600090555060010162000368565b5090565b90565b61349e80620003996000396000f3fe608060405234801561001057600080fd5b50600436106101735760003560e01c80636c0360eb116100de578063a22cb46511610097578063c87b56dd11610071578063c87b56dd1461091d578063cf378343146109c4578063e985e9c514610ab3578063f2fde38b14610b2f57610173565b8063a22cb4651461076c578063b88d4fde146107bc578063c3c5a547146108c157610173565b80636c0360eb146105b057806370a0823114610633578063715018a61461068b57806371991fb3146106955780638da5cb5b1461069f57806395d89b41146106e957610173565b80632f745c59116101305780632f745c59146103a857806342842e0e1461040a578063476fd474146104785780634f6ccce7146104bc57806361f5254e146104fe5780636352211e1461054257610173565b806301ffc9a71461017857806306fdde03146101dd578063081812fc14610260578063095ea7b3146102ce57806318160ddd1461031c57806323b872dd1461033a575b600080fd5b6101c36004803603602081101561018e57600080fd5b8101908080357bffffffffffffffffffffffffffffffffffffffffffffffffffffffff19169060200190929190505050610b73565b604051808215151515815260200191505060405180910390f35b6101e5610bda565b6040518080602001828103825283818151815260200191508051906020019080838360005b8381101561022557808201518184015260208101905061020a565b50505050905090810190601f1680156102525780820380516001836020036101000a031916815260200191505b509250505060405180910390f35b61028c6004803603602081101561027657600080fd5b8101908080359060200190929190505050610c7c565b604051808273ffffffffffffffffffffffffffffffffffffffff1673ffffffffffffffffffffffffffffffffffffffff16815260200191505060405180910390f35b61031a600480360360408110156102e457600080fd5b81019080803573ffffffffffffffffffffffffffffffffffffffff16906020019092919080359060200190929190505050610d17565b005b610324610e5b565b6040518082815260200191505060405180910390f35b6103a66004803603606081101561035057600080fd5b81019080803573ffffffffffffffffffffffffffffffffffffffff169060200190929190803573ffffffffffffffffffffffffffffffffffffffff16906020019092919080359060200190929190505050610e6c565b005b6103f4600480360360408110156103be57600080fd5b81019080803573ffffffffffffffffffffffffffffffffffffffff16906020019092919080359060200190929190505050610ee2565b6040518082815260200191505060405180910390f35b6104766004803603606081101561042057600080fd5b81019080803573ffffffffffffffffffffffffffffffffffffffff169060200190929190803573ffffffffffffffffffffffffffffffffffffffff16906020019092919080359060200190929190505050610f3d565b005b6104ba6004803603602081101561048e57600080fd5b81019080803573ffffffffffffffffffffffffffffffffffffffff169060200190929190505050610f5d565b005b6104e8600480360360208110156104d257600080fd5b81019080803590602001909291905050506110aa565b6040518082815260200191505060405180910390f35b6105406004803603602081101561051457600080fd5b81019080803573ffffffffffffffffffffffffffffffffffffffff1690602001909291905050506110cd565b005b61056e6004803603602081101561055857600080fd5b810190808035906020019092919050505061121a565b604051808273ffffffffffffffffffffffffffffffffffffffff1673ffffffffffffffffffffffffffffffffffffffff16815260200191505060405180910390f35b6105b8611251565b6040518080602001828103825283818151815260200191508051906020019080838360005b838110156105f85780820151818401526020810190506105dd565b50505050905090810190601f1680156106255780820380516001836020036101000a031916815260200191505b509250505060405180910390f35b6106756004803603602081101561064957600080fd5b81019080803573ffffffffffffffffffffffffffffffffffffffff1690602001909291905050506112f3565b6040518082815260200191505060405180910390f35b6106936113c8565b005b61069d611538565b005b6106a761153a565b604051808273ffffffffffffffffffffffffffffffffffffffff1673ffffffffffffffffffffffffffffffffffffffff16815260200191505060405180910390f35b6106f1611564565b6040518080602001828103825283818151815260200191508051906020019080838360005b83811015610731578082015181840152602081019050610716565b50505050905090810190601f16801561075e5780820380516001836020036101000a031916815260200191505b509250505060405180910390f35b6107ba6004803603604081101561078257600080fd5b81019080803573ffffffffffffffffffffffffffffffffffffffff169060200190929190803515159060200190929190505050611606565b005b6108bf600480360360808110156107d257600080fd5b81019080803573ffffffffffffffffffffffffffffffffffffffff169060200190929190803573ffffffffffffffffffffffffffffffffffffffff169060200190929190803590602001909291908035906020019064010000000081111561083957600080fd5b82018360208201111561084b57600080fd5b8035906020019184600183028401116401000000008311171561086d57600080fd5b91908080601f016020809104026020016040519081016040528093929190818152602001838380828437600081840152601f19601f8201169050808301925050505050505091929192905050506117be565b005b610903600480360360208110156108d757600080fd5b81019080803573ffffffffffffffffffffffffffffffffffffffff169060200190929190505050611836565b604051808215151515815260200191505060405180910390f35b6109496004803603602081101561093357600080fd5b810190808035906020019092919050505061188c565b6040518080602001828103825283818151815260200191508051906020019080838360005b8381101561098957808201518184015260208101905061096e565b50505050905090810190601f1680156109b65780820380516001836020036101000a031916815260200191505b509250505060405180910390f35b610a9d600480360360408110156109da57600080fd5b81019080803573ffffffffffffffffffffffffffffffffffffffff16906020019092919080359060200190640100000000811115610a1757600080fd5b820183602082011115610a2957600080fd5b80359060200191846001830284011164010000000083111715610a4b57600080fd5b91908080601f016020809104026020016040519081016040528093929190818152602001838380828437600081840152601f19601f820116905080830192505050505050509192919290505050611b5d565b6040518082815260200191505060405180910390f35b610b1560048036036040811015610ac957600080fd5b81019080803573ffffffffffffffffffffffffffffffffffffffff169060200190929190803573ffffffffffffffffffffffffffffffffffffffff169060200190929190505050611b95565b604051808215151515815260200191505060405180910390f35b610b7160048036036020811015610b4557600080fd5b81019080803573ffffffffffffffffffffffffffffffffffffffff169060200190929190505050611c29565b005b6000806000837bffffffffffffffffffffffffffffffffffffffffffffffffffffffff19167bffffffffffffffffffffffffffffffffffffffffffffffffffffffff1916815260200190815260200160002060009054906101000a900460ff169050919050565b606060068054600181600116156101000203166002900480601f016020809104026020016040519081016040528092919081815260200182805460018160011615610100020316600290048015610c725780601f10610c4757610100808354040283529160200191610c72565b820191906000526020600020905b815481529060010190602001808311610c5557829003601f168201915b5050505050905090565b6000610c8782611e1e565b610cdc576040517f08c379a000000000000000000000000000000000000000000000000000000000815260040180806020018281038252602c815260200180613367602c913960400191505060405180910390fd5b6004600083815260200190815260200160002060009054906101000a900473ffffffffffffffffffffffffffffffffffffffff169050919050565b6000610d228261121a565b90508073ffffffffffffffffffffffffffffffffffffffff168373ffffffffffffffffffffffffffffffffffffffff161415610da9576040517f08c379a00000000000000000000000000000000000000000000000000000000081526004018080602001828103825260218152602001806134176021913960400191505060405180910390fd5b8073ffffffffffffffffffffffffffffffffffffffff16610dc8611e3b565b73ffffffffffffffffffffffffffffffffffffffff161480610df75750610df681610df1611e3b565b611b95565b5b610e4c576040517f08c379a00000000000000000000000000000000000000000000000000000000081526004018080602001828103825260388152602001806132ba6038913960400191505060405180910390fd5b610e568383611e43565b505050565b6000610e676002611efc565b905090565b610e7d610e77611e3b565b82611f11565b610ed2576040517f08c379a00000000000000000000000000000000000000000000000000000000081526004018080602001828103825260318152602001806134386031913960400191505060405180910390fd5b610edd838383612005565b505050565b6000610f3582600160008673ffffffffffffffffffffffffffffffffffffffff1673ffffffffffffffffffffffffffffffffffffffff16815260200190815260200160002061224890919063ffffffff16565b905092915050565b610f58838383604051806020016040528060008152506117be565b505050565b610f65611e3b565b73ffffffffffffffffffffffffffffffffffffffff16610f8361153a565b73ffffffffffffffffffffffffffffffffffffffff161461100c576040517f08c379a00000000000000000000000000000000000000000000000000000000081526004018080602001828103825260208152602001807f4f776e61626c653a2063616c6c6572206973206e6f7420746865206f776e657281525060200191505060405180910390fd5b6001600c60008373ffffffffffffffffffffffffffffffffffffffff1673ffffffffffffffffffffffffffffffffffffffff16815260200190815260200160002060006101000a81548160ff0219169083151502179055508073ffffffffffffffffffffffffffffffffffffffff167fdc9dc61ca7d83caa48f723cd631a7efdc158c77e199cea6a34f23ba7a949ebe460405160405180910390a250565b6000806110c183600261226290919063ffffffff16565b50905080915050919050565b6110d5611e3b565b73ffffffffffffffffffffffffffffffffffffffff166110f361153a565b73ffffffffffffffffffffffffffffffffffffffff161461117c576040517f08c379a00000000000000000000000000000000000000000000000000000000081526004018080602001828103825260208152602001807f4f776e61626c653a2063616c6c6572206973206e6f7420746865206f776e657281525060200191505060405180910390fd5b6000600c60008373ffffffffffffffffffffffffffffffffffffffff1673ffffffffffffffffffffffffffffffffffffffff16815260200190815260200160002060006101000a81548160ff0219169083151502179055508073ffffffffffffffffffffffffffffffffffffffff167f8553a884df96a3a8f5703af3c6f5d1b86689da638cfd8571541472263bd1758960405160405180910390a250565b600061124a8260405180606001604052806029815260200161331c6029913960026122919092919063ffffffff16565b9050919050565b606060098054600181600116156101000203166002900480601f0160208091040260200160405190810160405280929190818152602001828054600181600116156101000203166002900480156112e95780601f106112be576101008083540402835291602001916112e9565b820191906000526020600020905b8154815290600101906020018083116112cc57829003601f168201915b5050505050905090565b60008073ffffffffffffffffffffffffffffffffffffffff168273ffffffffffffffffffffffffffffffffffffffff16141561137a576040517f08c379a000000000000000000000000000000000000000000000000000000000815260040180806020018281038252602a8152602001806132f2602a913960400191505060405180910390fd5b6113c1600160008473ffffffffffffffffffffffffffffffffffffffff1673ffffffffffffffffffffffffffffffffffffffff1681526020019081526020016000206122b0565b9050919050565b6113d0611e3b565b73ffffffffffffffffffffffffffffffffffffffff166113ee61153a565b73ffffffffffffffffffffffffffffffffffffffff1614611477576040517f08c379a00000000000000000000000000000000000000000000000000000000081526004018080602001828103825260208152602001807f4f776e61626c653a2063616c6c6572206973206e6f7420746865206f776e657281525060200191505060405180910390fd5b600073ffffffffffffffffffffffffffffffffffffffff16600a60009054906101000a900473ffffffffffffffffffffffffffffffffffffffff1673ffffffffffffffffffffffffffffffffffffffff167f8be0079c531659141344cd1fd0a4f28419497f9722a3daafe3b4186f6b6457e060405160405180910390a36000600a60006101000a81548173ffffffffffffffffffffffffffffffffffffffff021916908373ffffffffffffffffffffffffffffffffffffffff160217905550565b565b6000600a60009054906101000a900473ffffffffffffffffffffffffffffffffffffffff16905090565b606060078054600181600116156101000203166002900480601f0160208091040260200160405190810160405280929190818152602001828054600181600116156101000203166002900480156115fc5780601f106115d1576101008083540402835291602001916115fc565b820191906000526020600020905b8154815290600101906020018083116115df57829003601f168201915b5050505050905090565b61160e611e3b565b73ffffffffffffffffffffffffffffffffffffffff168273ffffffffffffffffffffffffffffffffffffffff1614156116af576040517f08c379a00000000000000000000000000000000000000000000000000000000081526004018080602001828103825260198152602001807f4552433732313a20617070726f766520746f2063616c6c65720000000000000081525060200191505060405180910390fd5b80600560006116bc611e3b565b73ffffffffffffffffffffffffffffffffffffffff1673ffffffffffffffffffffffffffffffffffffffff16815260200190815260200160002060008473ffffffffffffffffffffffffffffffffffffffff1673ffffffffffffffffffffffffffffffffffffffff16815260200190815260200160002060006101000a81548160ff0219169083151502179055508173ffffffffffffffffffffffffffffffffffffffff16611769611e3b565b73ffffffffffffffffffffffffffffffffffffffff167f17307eab39ab6107e8899845ad3d59bd9653f200f220920489ca2b5937696c3183604051808215151515815260200191505060405180910390a35050565b6117cf6117c9611e3b565b83611f11565b611824576040517f08c379a00000000000000000000000000000000000000000000000000000000081526004018080602001828103825260318152602001806134386031913960400191505060405180910390fd5b611830848484846122c5565b50505050565b6000600c60008373ffffffffffffffffffffffffffffffffffffffff1673ffffffffffffffffffffffffffffffffffffffff16815260200190815260200160002060009054906101000a900460ff169050919050565b606061189782611e1e565b6118ec576040517f08c379a000000000000000000000000000000000000000000000000000000000815260040180806020018281038252602f8152602001806133e8602f913960400191505060405180910390fd5b6060600860008481526020019081526020016000208054600181600116156101000203166002900480601f0160208091040260200160405190810160405280929190818152602001828054600181600116156101000203166002900480156119955780601f1061196a57610100808354040283529160200191611995565b820191906000526020600020905b81548152906001019060200180831161197857829003601f168201915b5050505050905060606119a6611251565b90506000815114156119bc578192505050611b58565b600082511115611a8d5780826040516020018083805190602001908083835b602083106119fe57805182526020820191506020810190506020830392506119db565b6001836020036101000a03801982511681845116808217855250505050505090500182805190602001908083835b60208310611a4f5780518252602082019150602081019050602083039250611a2c565b6001836020036101000a0380198251168184511680821785525050505050509050019250505060405160208183030381529060405292505050611b58565b80611a9785612337565b6040516020018083805190602001908083835b60208310611acd5780518252602082019150602081019050602083039250611aaa565b6001836020036101000a03801982511681845116808217855250505050505090500182805190602001908083835b60208310611b1e5780518252602082019150602081019050602083039250611afb565b6001836020036101000a03801982511681845116808217855250505050505090500192505050604051602081830303815290604052925050505b919050565b6000611b69600b612467565b6000611b75600b61247d565b9050611b81848261248b565b611b8b818461267f565b8091505092915050565b6000600560008473ffffffffffffffffffffffffffffffffffffffff1673ffffffffffffffffffffffffffffffffffffffff16815260200190815260200160002060008373ffffffffffffffffffffffffffffffffffffffff1673ffffffffffffffffffffffffffffffffffffffff16815260200190815260200160002060009054906101000a900460ff16905092915050565b611c31611e3b565b73ffffffffffffffffffffffffffffffffffffffff16611c4f61153a565b73ffffffffffffffffffffffffffffffffffffffff1614611cd8576040517f08c379a00000000000000000000000000000000000000000000000000000000081526004018080602001828103825260208152602001807f4f776e61626c653a2063616c6c6572206973206e6f7420746865206f776e657281525060200191505060405180910390fd5b600073ffffffffffffffffffffffffffffffffffffffff168173ffffffffffffffffffffffffffffffffffffffff161415611d5e576040517f08c379a000000000000000000000000000000000000000000000000000000000815260040180806020018281038252602681526020018061321e6026913960400191505060405180910390fd5b8073ffffffffffffffffffffffffffffffffffffffff16600a60009054906101000a900473ffffffffffffffffffffffffffffffffffffffff1673ffffffffffffffffffffffffffffffffffffffff167f8be0079c531659141344cd1fd0a4f28419497f9722a3daafe3b4186f6b6457e060405160405180910390a380600a60006101000a81548173ffffffffffffffffffffffffffffffffffffffff021916908373ffffffffffffffffffffffffffffffffffffffff16021790555050565b6000611e3482600261270990919063ffffffff16565b9050919050565b600033905090565b816004600083815260200190815260200160002060006101000a81548173ffffffffffffffffffffffffffffffffffffffff021916908373ffffffffffffffffffffffffffffffffffffffff160217905550808273ffffffffffffffffffffffffffffffffffffffff16611eb68361121a565b73ffffffffffffffffffffffffffffffffffffffff167f8c5be1e5ebec7d5bd14f71427d1e84f3dd0314c0f7b2291e5b200ac8c7c3b92560405160405180910390a45050565b6000611f0a82600001612723565b9050919050565b6000611f1c82611e1e565b611f71576040517f08c379a000000000000000000000000000000000000000000000000000000000815260040180806020018281038252602c81526020018061328e602c913960400191505060405180910390fd5b6000611f7c8361121a565b90508073ffffffffffffffffffffffffffffffffffffffff168473ffffffffffffffffffffffffffffffffffffffff161480611feb57508373ffffffffffffffffffffffffffffffffffffffff16611fd384610c7c565b73ffffffffffffffffffffffffffffffffffffffff16145b80611ffc5750611ffb8185611b95565b5b91505092915050565b8273ffffffffffffffffffffffffffffffffffffffff166120258261121a565b73ffffffffffffffffffffffffffffffffffffffff1614612091576040517f08c379a00000000000000000000000000000000000000000000000000000000081526004018080602001828103825260298152602001806133bf6029913960400191505060405180910390fd5b600073ffffffffffffffffffffffffffffffffffffffff168273ffffffffffffffffffffffffffffffffffffffff161415612117576040517f08c379a00000000000000000000000000000000000000000000000000000000081526004018080602001828103825260248152602001806132446024913960400191505060405180910390fd5b612122838383612734565b61212d600082611e43565b61217e81600160008673ffffffffffffffffffffffffffffffffffffffff1673ffffffffffffffffffffffffffffffffffffffff16815260200190815260200160002061273990919063ffffffff16565b506121d081600160008573ffffffffffffffffffffffffffffffffffffffff1673ffffffffffffffffffffffffffffffffffffffff16815260200190815260200160002061275390919063ffffffff16565b506121e78183600261276d9092919063ffffffff16565b50808273ffffffffffffffffffffffffffffffffffffffff168473ffffffffffffffffffffffffffffffffffffffff167fddf252ad1be2c89b69c2b068fc378daa952ba7f163c4a11628f55a4df523b3ef60405160405180910390a4505050565b600061225783600001836127a2565b60001c905092915050565b6000806000806122758660000186612825565b915091508160001c8160001c8090509350935050509250929050565b60006122a4846000018460001b846128be565b60001c90509392505050565b60006122be826000016129b4565b9050919050565b6122d0848484612005565b6122dc848484846129c5565b612331576040517f08c379a00000000000000000000000000000000000000000000000000000000081526004018080602001828103825260328152602001806131ec6032913960400191505060405180910390fd5b50505050565b6060600082141561237f576040518060400160405280600181526020017f30000000000000000000000000000000000000000000000000000000000000008152509050612462565b600082905060005b600082146123a9578080600101915050600a82816123a157fe5b049150612387565b6060816040519080825280601f01601f1916602001820160405280156123de5781602001600182028038833980820191505090505b50905060006001830390508593505b6000841461245a57600a84816123ff57fe5b0660300160f81b8282806001900393508151811061241957fe5b60200101907effffffffffffffffffffffffffffffffffffffffffffffffffffffffffffff1916908160001a905350600a848161245257fe5b0493506123ed565b819450505050505b919050565b6001816000016000828254019250508190555050565b600081600001549050919050565b600073ffffffffffffffffffffffffffffffffffffffff168273ffffffffffffffffffffffffffffffffffffffff16141561252e576040517f08c379a00000000000000000000000000000000000000000000000000000000081526004018080602001828103825260208152602001807f4552433732313a206d696e7420746f20746865207a65726f206164647265737381525060200191505060405180910390fd5b61253781611e1e565b156125aa576040517f08c379a000000000000000000000000000000000000000000000000000000000815260040180806020018281038252601c8152602001807f4552433732313a20746f6b656e20616c7265616479206d696e7465640000000081525060200191505060405180910390fd5b6125b660008383612734565b61260781600160008573ffffffffffffffffffffffffffffffffffffffff1673ffffffffffffffffffffffffffffffffffffffff16815260200190815260200160002061275390919063ffffffff16565b5061261e8183600261276d9092919063ffffffff16565b50808273ffffffffffffffffffffffffffffffffffffffff16600073ffffffffffffffffffffffffffffffffffffffff167fddf252ad1be2c89b69c2b068fc378daa952ba7f163c4a11628f55a4df523b3ef60405160405180910390a45050565b61268882611e1e565b6126dd576040517f08c379a000000000000000000000000000000000000000000000000000000000815260040180806020018281038252602c815260200180613393602c913960400191505060405180910390fd5b80600860008481526020019081526020016000209080519060200190612704929190613124565b505050565b600061271b836000018360001b612c0a565b905092915050565b600081600001805490509050919050565b505050565b600061274b836000018360001b612c2d565b905092915050565b6000612765836000018360001b612d15565b905092915050565b6000612799846000018460001b8473ffffffffffffffffffffffffffffffffffffffff1660001b612d85565b90509392505050565b600081836000018054905011612803576040517f08c379a00000000000000000000000000000000000000000000000000000000081526004018080602001828103825260228152602001806131ca6022913960400191505060405180910390fd5b82600001828154811061281257fe5b9060005260206000200154905092915050565b60008082846000018054905011612887576040517f08c379a00000000000000000000000000000000000000000000000000000000081526004018080602001828103825260228152602001806133456022913960400191505060405180910390fd5b600084600001848154811061289857fe5b906000526020600020906002020190508060000154816001015492509250509250929050565b60008084600101600085815260200190815260200160002054905060008114158390612985576040517f08c379a00000000000000000000000000000000000000000000000000000000081526004018080602001828103825283818151815260200191508051906020019080838360005b8381101561294a57808201518184015260208101905061292f565b50505050905090810190601f1680156129775780820380516001836020036101000a031916815260200191505b509250505060405180910390fd5b5084600001600182038154811061299857fe5b9060005260206000209060020201600101549150509392505050565b600081600001805490509050919050565b60006129e68473ffffffffffffffffffffffffffffffffffffffff16612e61565b6129f35760019050612c02565b6060612b8963150b7a0260e01b612a08611e3b565b888787604051602401808573ffffffffffffffffffffffffffffffffffffffff1673ffffffffffffffffffffffffffffffffffffffff1681526020018473ffffffffffffffffffffffffffffffffffffffff1673ffffffffffffffffffffffffffffffffffffffff16815260200183815260200180602001828103825283818151815260200191508051906020019080838360005b83811015612ab8578082015181840152602081019050612a9d565b50505050905090810190601f168015612ae55780820380516001836020036101000a031916815260200191505b5095505050505050604051602081830303815290604052907bffffffffffffffffffffffffffffffffffffffffffffffffffffffff19166020820180517bffffffffffffffffffffffffffffffffffffffffffffffffffffffff83818316178352505050506040518060600160405280603281526020016131ec603291398773ffffffffffffffffffffffffffffffffffffffff16612e749092919063ffffffff16565b90506000818060200190516020811015612ba257600080fd5b8101908080519060200190929190505050905063150b7a0260e01b7bffffffffffffffffffffffffffffffffffffffffffffffffffffffff1916817bffffffffffffffffffffffffffffffffffffffffffffffffffffffff191614925050505b949350505050565b600080836001016000848152602001908152602001600020541415905092915050565b60008083600101600084815260200190815260200160002054905060008114612d095760006001820390506000600186600001805490500390506000866000018281548110612c7857fe5b9060005260206000200154905080876000018481548110612c9557fe5b9060005260206000200181905550600183018760010160008381526020019081526020016000208190555086600001805480612ccd57fe5b60019003818190600052602060002001600090559055866001016000878152602001908152602001600020600090556001945050505050612d0f565b60009150505b92915050565b6000612d218383612e8c565b612d7a578260000182908060018154018082558091505060019003906000526020600020016000909190919091505582600001805490508360010160008481526020019081526020016000208190555060019050612d7f565b600090505b92915050565b6000808460010160008581526020019081526020016000205490506000811415612e2c57846000016040518060400160405280868152602001858152509080600181540180825580915050600190039060005260206000209060020201600090919091909150600082015181600001556020820151816001015550508460000180549050856001016000868152602001908152602001600020819055506001915050612e5a565b82856000016001830381548110612e3f57fe5b90600052602060002090600202016001018190555060009150505b9392505050565b600080823b905060008111915050919050565b6060612e838484600085612eaf565b90509392505050565b600080836001016000848152602001908152602001600020541415905092915050565b606082471015612f0a576040517f08c379a00000000000000000000000000000000000000000000000000000000081526004018080602001828103825260268152602001806132686026913960400191505060405180910390fd5b612f1385612e61565b612f85576040517f08c379a000000000000000000000000000000000000000000000000000000000815260040180806020018281038252601d8152602001807f416464726573733a2063616c6c20746f206e6f6e2d636f6e747261637400000081525060200191505060405180910390fd5b600060608673ffffffffffffffffffffffffffffffffffffffff1685876040518082805190602001908083835b60208310612fd55780518252602082019150602081019050602083039250612fb2565b6001836020036101000a03801982511681845116808217855250505050505090500191505060006040518083038185875af1925050503d8060008114613037576040519150601f19603f3d011682016040523d82523d6000602084013e61303c565b606091505b509150915061304c828286613058565b92505050949350505050565b606083156130685782905061311d565b60008351111561307b5782518084602001fd5b816040517f08c379a00000000000000000000000000000000000000000000000000000000081526004018080602001828103825283818151815260200191508051906020019080838360005b838110156130e25780820151818401526020810190506130c7565b50505050905090810190601f16801561310f5780820380516001836020036101000a031916815260200191505b509250505060405180910390fd5b9392505050565b828054600181600116156101000203166002900490600052602060002090601f016020900481019282601f1061316557805160ff1916838001178555613193565b82800160010185558215613193579182015b82811115613192578251825591602001919060010190613177565b5b5090506131a091906131a4565b5090565b6131c691905b808211156131c25760008160009055506001016131aa565b5090565b9056fe456e756d657261626c655365743a20696e646578206f7574206f6620626f756e64734552433732313a207472616e7366657220746f206e6f6e20455243373231526563656976657220696d706c656d656e7465724f776e61626c653a206e6577206f776e657220697320746865207a65726f20616464726573734552433732313a207472616e7366657220746f20746865207a65726f2061646472657373416464726573733a20696e73756666696369656e742062616c616e636520666f722063616c6c4552433732313a206f70657261746f7220717565727920666f72206e6f6e6578697374656e7420746f6b656e4552433732313a20617070726f76652063616c6c6572206973206e6f74206f776e6572206e6f7220617070726f76656420666f7220616c6c4552433732313a2062616c616e636520717565727920666f7220746865207a65726f20616464726573734552433732313a206f776e657220717565727920666f72206e6f6e6578697374656e7420746f6b656e456e756d657261626c654d61703a20696e646578206f7574206f6620626f756e64734552433732313a20617070726f76656420717565727920666f72206e6f6e6578697374656e7420746f6b656e4552433732314d657461646174613a2055524920736574206f66206e6f6e6578697374656e7420746f6b656e4552433732313a207472616e73666572206f6620746f6b656e2074686174206973206e6f74206f776e4552433732314d657461646174613a2055524920717565727920666f72206e6f6e6578697374656e7420746f6b656e4552433732313a20617070726f76616c20746f2063757272656e74206f776e65724552433732313a207472616e736665722063616c6c6572206973206e6f74206f776e6572206e6f7220617070726f766564a26469706673582212200e658984667d56358e38b78886b7aea8acb4ac4567b255e07fb91828e5e283bf64736f6c63430006020033",
  "source": "pragma solidity >=0.4.22 <0.9.0;\r\n\r\nimport \"@openzeppelin/contracts/token/ERC721/ERC721.sol\";\r\nimport \"@openzeppelin/contracts/utils/Counters.sol\";\r\nimport \"@openzeppelin/contracts/access/Ownable.sol\";\r\n//import \"@openzeppelin/contracts/token/ERC721/IERC721Metadata.sol\";\r\n\r\ncontract FightingAnimals is ERC721, Ownable {\r\n    using Counters for Counters.Counter;\r\n    Counters.Counter private _tokenIds;\r\n\r\n    constructor() public ERC721(\"CryptoPoulpe\", \"PLP\") {}\r\n\r\n    mapping( address => bool) registedBreeder;\r\n    event registerNewBreeder( address indexed account);\r\n    event unregisterOldBreeder( address indexed account);\r\n\r\n    modifier onlyWhitelisted() {\r\n        require(isRegistered(msg.sender));\r\n        _;\r\n    }\r\n\r\n    function registerBreeder( address _address) public onlyOwner{ // add a breeder to the list of registered breeder\r\n        registedBreeder[_address] = true;\r\n        emit registerNewBreeder(_address);\r\n    }\r\n\r\n    function unregisterBreeder(address _address) public onlyOwner{// remove breeder from the list of registered breader\r\n        registedBreeder[_address] = false;\r\n        emit unregisterOldBreeder(_address);\r\n    }\r\n\r\n    function isRegistered(address _address) public view returns(bool) {\r\n        return registedBreeder[_address];\r\n    }\r\n\r\n\r\n    function awardItem(address player, string memory tokenURI)\r\n        public\r\n        returns (uint256)\r\n    {\r\n        _tokenIds.increment();\r\n\r\n        uint256 newItemId = _tokenIds.current();\r\n        _mint(player, newItemId);\r\n        _setTokenURI(newItemId, tokenURI);\r\n\r\n        return newItemId;\r\n    }\r\n\r\n    struct CryptoPoulpe{\r\n        string name; // Name of the Item\r\n        uint tentacule; // Item Level\r\n        uint rarityLevel;  // 1 = normal, 2 = rare, 3 = epic, 4 = legendary\r\n    }\r\n\r\n    function declareAnimal() public{\r\n\r\n    }\r\n}",
  "sourcePath": "C:/Users/guill/TD_ERC721/contracts/FightingAnimals.sol",
  "compiler": {
    "name": "solc",
    "version": "0.6.2+commit.bacdbe57.Emscripten.clang"
  },
  "schemaVersion": "3.3.4",
  "updatedAt": "2021-03-21T15:58:46.856Z",
  "devdoc": {
    "methods": {
      "approve(address,uint256)": {
        "details": "See {IERC721-approve}."
      },
      "balanceOf(address)": {
        "details": "See {IERC721-balanceOf}."
      },
      "baseURI()": {
        "details": "Returns the base URI set via {_setBaseURI}. This will be automatically added as a prefix in {tokenURI} to each token's URI, or to the token ID if no specific URI is set for that token ID."
      },
      "getApproved(uint256)": {
        "details": "See {IERC721-getApproved}."
      },
      "isApprovedForAll(address,address)": {
        "details": "See {IERC721-isApprovedForAll}."
      },
      "name()": {
        "details": "See {IERC721Metadata-name}."
      },
      "owner()": {
        "details": "Returns the address of the current owner."
      },
      "ownerOf(uint256)": {
        "details": "See {IERC721-ownerOf}."
      },
      "renounceOwnership()": {
        "details": "Leaves the contract without owner. It will not be possible to call `onlyOwner` functions anymore. Can only be called by the current owner.     * NOTE: Renouncing ownership will leave the contract without an owner, thereby removing any functionality that is only available to the owner."
      },
      "safeTransferFrom(address,address,uint256)": {
        "details": "See {IERC721-safeTransferFrom}."
      },
      "safeTransferFrom(address,address,uint256,bytes)": {
        "details": "See {IERC721-safeTransferFrom}."
      },
      "setApprovalForAll(address,bool)": {
        "details": "See {IERC721-setApprovalForAll}."
      },
      "supportsInterface(bytes4)": {
        "details": "See {IERC165-supportsInterface}.     * Time complexity O(1), guaranteed to always use less than 30 000 gas."
      },
      "symbol()": {
        "details": "See {IERC721Metadata-symbol}."
      },
      "tokenByIndex(uint256)": {
        "details": "See {IERC721Enumerable-tokenByIndex}."
      },
      "tokenOfOwnerByIndex(address,uint256)": {
        "details": "See {IERC721Enumerable-tokenOfOwnerByIndex}."
      },
      "tokenURI(uint256)": {
        "details": "See {IERC721Metadata-tokenURI}."
      },
      "totalSupply()": {
        "details": "See {IERC721Enumerable-totalSupply}."
      },
      "transferFrom(address,address,uint256)": {
        "details": "See {IERC721-transferFrom}."
      },
      "transferOwnership(address)": {
        "details": "Transfers ownership of the contract to a new account (`newOwner`). Can only be called by the current owner."
      }
    }
  },
  "userdoc": {
    "methods": {}
  }
}